{
  "_format": "hh-sol-artifact-1",
  "contractName": "NFTCollectible",
  "sourceName": "contracts/NFTCollectible.sol",
  "abi": [
    {
      "inputs": [
        {
          "internalType": "string",
          "name": "baseURI",
          "type": "string"
        }
      ],
      "stateMutability": "nonpayable",
      "type": "constructor"
    },
    {
      "anonymous": false,
      "inputs": [
        {
          "indexed": true,
          "internalType": "address",
          "name": "owner",
          "type": "address"
        },
        {
          "indexed": true,
          "internalType": "address",
          "name": "approved",
          "type": "address"
        },
        {
          "indexed": true,
          "internalType": "uint256",
          "name": "tokenId",
          "type": "uint256"
        }
      ],
      "name": "Approval",
      "type": "event"
    },
    {
      "anonymous": false,
      "inputs": [
        {
          "indexed": true,
          "internalType": "address",
          "name": "owner",
          "type": "address"
        },
        {
          "indexed": true,
          "internalType": "address",
          "name": "operator",
          "type": "address"
        },
        {
          "indexed": false,
          "internalType": "bool",
          "name": "approved",
          "type": "bool"
        }
      ],
      "name": "ApprovalForAll",
      "type": "event"
    },
    {
      "anonymous": false,
      "inputs": [
        {
          "indexed": true,
          "internalType": "address",
          "name": "previousOwner",
          "type": "address"
        },
        {
          "indexed": true,
          "internalType": "address",
          "name": "newOwner",
          "type": "address"
        }
      ],
      "name": "OwnershipTransferred",
      "type": "event"
    },
    {
      "anonymous": false,
      "inputs": [
        {
          "indexed": true,
          "internalType": "address",
          "name": "from",
          "type": "address"
        },
        {
          "indexed": true,
          "internalType": "address",
          "name": "to",
          "type": "address"
        },
        {
          "indexed": true,
          "internalType": "uint256",
          "name": "tokenId",
          "type": "uint256"
        }
      ],
      "name": "Transfer",
      "type": "event"
    },
    {
      "inputs": [],
      "name": "MAX_PER_MINT",
      "outputs": [
        {
          "internalType": "uint256",
          "name": "",
          "type": "uint256"
        }
      ],
      "stateMutability": "view",
      "type": "function"
    },
    {
      "inputs": [],
      "name": "MAX_SUPPLY",
      "outputs": [
        {
          "internalType": "uint256",
          "name": "",
          "type": "uint256"
        }
      ],
      "stateMutability": "view",
      "type": "function"
    },
    {
      "inputs": [],
      "name": "PRICE",
      "outputs": [
        {
          "internalType": "uint256",
          "name": "",
          "type": "uint256"
        }
      ],
      "stateMutability": "view",
      "type": "function"
    },
    {
      "inputs": [
        {
          "internalType": "address",
          "name": "to",
          "type": "address"
        },
        {
          "internalType": "uint256",
          "name": "tokenId",
          "type": "uint256"
        }
      ],
      "name": "approve",
      "outputs": [],
      "stateMutability": "nonpayable",
      "type": "function"
    },
    {
      "inputs": [
        {
          "internalType": "address",
          "name": "owner",
          "type": "address"
        }
      ],
      "name": "balanceOf",
      "outputs": [
        {
          "internalType": "uint256",
          "name": "",
          "type": "uint256"
        }
      ],
      "stateMutability": "view",
      "type": "function"
    },
    {
      "inputs": [],
      "name": "baseTokenURI",
      "outputs": [
        {
          "internalType": "string",
          "name": "",
          "type": "string"
        }
      ],
      "stateMutability": "view",
      "type": "function"
    },
    {
      "inputs": [
        {
          "internalType": "uint256",
          "name": "tokenId",
          "type": "uint256"
        }
      ],
      "name": "getApproved",
      "outputs": [
        {
          "internalType": "address",
          "name": "",
          "type": "address"
        }
      ],
      "stateMutability": "view",
      "type": "function"
    },
    {
      "inputs": [
        {
          "internalType": "address",
          "name": "owner",
          "type": "address"
        },
        {
          "internalType": "address",
          "name": "operator",
          "type": "address"
        }
      ],
      "name": "isApprovedForAll",
      "outputs": [
        {
          "internalType": "bool",
          "name": "",
          "type": "bool"
        }
      ],
      "stateMutability": "view",
      "type": "function"
    },
    {
      "inputs": [
        {
          "internalType": "uint256",
          "name": "_count",
          "type": "uint256"
        }
      ],
      "name": "mintNFTs",
      "outputs": [],
      "stateMutability": "payable",
      "type": "function"
    },
    {
      "inputs": [],
      "name": "name",
      "outputs": [
        {
          "internalType": "string",
          "name": "",
          "type": "string"
        }
      ],
      "stateMutability": "view",
      "type": "function"
    },
    {
      "inputs": [],
      "name": "owner",
      "outputs": [
        {
          "internalType": "address",
          "name": "",
          "type": "address"
        }
      ],
      "stateMutability": "view",
      "type": "function"
    },
    {
      "inputs": [
        {
          "internalType": "uint256",
          "name": "tokenId",
          "type": "uint256"
        }
      ],
      "name": "ownerOf",
      "outputs": [
        {
          "internalType": "address",
          "name": "",
          "type": "address"
        }
      ],
      "stateMutability": "view",
      "type": "function"
    },
    {
      "inputs": [],
      "name": "renounceOwnership",
      "outputs": [],
      "stateMutability": "nonpayable",
      "type": "function"
    },
    {
      "inputs": [],
      "name": "reserveNFTs",
      "outputs": [],
      "stateMutability": "nonpayable",
      "type": "function"
    },
    {
      "inputs": [
        {
          "internalType": "address",
          "name": "from",
          "type": "address"
        },
        {
          "internalType": "address",
          "name": "to",
          "type": "address"
        },
        {
          "internalType": "uint256",
          "name": "tokenId",
          "type": "uint256"
        }
      ],
      "name": "safeTransferFrom",
      "outputs": [],
      "stateMutability": "nonpayable",
      "type": "function"
    },
    {
      "inputs": [
        {
          "internalType": "address",
          "name": "from",
          "type": "address"
        },
        {
          "internalType": "address",
          "name": "to",
          "type": "address"
        },
        {
          "internalType": "uint256",
          "name": "tokenId",
          "type": "uint256"
        },
        {
          "internalType": "bytes",
          "name": "data",
          "type": "bytes"
        }
      ],
      "name": "safeTransferFrom",
      "outputs": [],
      "stateMutability": "nonpayable",
      "type": "function"
    },
    {
      "inputs": [
        {
          "internalType": "address",
          "name": "operator",
          "type": "address"
        },
        {
          "internalType": "bool",
          "name": "approved",
          "type": "bool"
        }
      ],
      "name": "setApprovalForAll",
      "outputs": [],
      "stateMutability": "nonpayable",
      "type": "function"
    },
    {
      "inputs": [
        {
          "internalType": "string",
          "name": "_baseTokenURI",
          "type": "string"
        }
      ],
      "name": "setBaseURI",
      "outputs": [],
      "stateMutability": "nonpayable",
      "type": "function"
    },
    {
      "inputs": [
        {
          "internalType": "bytes4",
          "name": "interfaceId",
          "type": "bytes4"
        }
      ],
      "name": "supportsInterface",
      "outputs": [
        {
          "internalType": "bool",
          "name": "",
          "type": "bool"
        }
      ],
      "stateMutability": "view",
      "type": "function"
    },
    {
      "inputs": [],
      "name": "symbol",
      "outputs": [
        {
          "internalType": "string",
          "name": "",
          "type": "string"
        }
      ],
      "stateMutability": "view",
      "type": "function"
    },
    {
      "inputs": [
        {
          "internalType": "uint256",
          "name": "index",
          "type": "uint256"
        }
      ],
      "name": "tokenByIndex",
      "outputs": [
        {
          "internalType": "uint256",
          "name": "",
          "type": "uint256"
        }
      ],
      "stateMutability": "view",
      "type": "function"
    },
    {
      "inputs": [
        {
          "internalType": "address",
          "name": "owner",
          "type": "address"
        },
        {
          "internalType": "uint256",
          "name": "index",
          "type": "uint256"
        }
      ],
      "name": "tokenOfOwnerByIndex",
      "outputs": [
        {
          "internalType": "uint256",
          "name": "",
          "type": "uint256"
        }
      ],
      "stateMutability": "view",
      "type": "function"
    },
    {
      "inputs": [
        {
          "internalType": "uint256",
          "name": "tokenId",
          "type": "uint256"
        }
      ],
      "name": "tokenURI",
      "outputs": [
        {
          "internalType": "string",
          "name": "",
          "type": "string"
        }
      ],
      "stateMutability": "view",
      "type": "function"
    },
    {
      "inputs": [
        {
          "internalType": "address",
          "name": "_owner",
          "type": "address"
        }
      ],
      "name": "tokensOfOwner",
      "outputs": [
        {
          "internalType": "uint256[]",
          "name": "",
          "type": "uint256[]"
        }
      ],
      "stateMutability": "view",
      "type": "function"
    },
    {
      "inputs": [],
      "name": "totalSupply",
      "outputs": [
        {
          "internalType": "uint256",
          "name": "",
          "type": "uint256"
        }
      ],
      "stateMutability": "view",
      "type": "function"
    },
    {
      "inputs": [
        {
          "internalType": "address",
          "name": "from",
          "type": "address"
        },
        {
          "internalType": "address",
          "name": "to",
          "type": "address"
        },
        {
          "internalType": "uint256",
          "name": "tokenId",
          "type": "uint256"
        }
      ],
      "name": "transferFrom",
      "outputs": [],
      "stateMutability": "nonpayable",
      "type": "function"
    },
    {
      "inputs": [
        {
          "internalType": "address",
          "name": "newOwner",
          "type": "address"
        }
      ],
      "name": "transferOwnership",
      "outputs": [],
      "stateMutability": "nonpayable",
      "type": "function"
    },
    {
      "inputs": [],
      "name": "withdraw",
      "outputs": [],
      "stateMutability": "payable",
      "type": "function"
    }
  ],
  "bytecode": "0x60806040523480156200001157600080fd5b506040516200486838038062004868833981810160405281019062000037919062000442565b6040518060400160405280600f81526020017f4e465420436f6c6c65637469626c6500000000000000000000000000000000008152506040518060400160405280600481526020017f4e465443000000000000000000000000000000000000000000000000000000008152508160009081620000b49190620006de565b508060019081620000c69190620006de565b505050620000e9620000dd6200010160201b60201c565b6200010960201b60201c565b620000fa81620001cf60201b60201c565b5062000848565b600033905090565b6000600a60009054906101000a900473ffffffffffffffffffffffffffffffffffffffff16905081600a60006101000a81548173ffffffffffffffffffffffffffffffffffffffff021916908373ffffffffffffffffffffffffffffffffffffffff1602179055508173ffffffffffffffffffffffffffffffffffffffff168173ffffffffffffffffffffffffffffffffffffffff167f8be0079c531659141344cd1fd0a4f28419497f9722a3daafe3b4186f6b6457e060405160405180910390a35050565b620001df620001f460201b60201c565b80600c9081620001f09190620006de565b5050565b620002046200010160201b60201c565b73ffffffffffffffffffffffffffffffffffffffff166200022a6200028560201b60201c565b73ffffffffffffffffffffffffffffffffffffffff161462000283576040517f08c379a00000000000000000000000000000000000000000000000000000000081526004016200027a9062000826565b60405180910390fd5b565b6000600a60009054906101000a900473ffffffffffffffffffffffffffffffffffffffff16905090565b6000604051905090565b600080fd5b600080fd5b600080fd5b600080fd5b6000601f19601f8301169050919050565b7f4e487b7100000000000000000000000000000000000000000000000000000000600052604160045260246000fd5b6200031882620002cd565b810181811067ffffffffffffffff821117156200033a5762000339620002de565b5b80604052505050565b60006200034f620002af565b90506200035d82826200030d565b919050565b600067ffffffffffffffff82111562000380576200037f620002de565b5b6200038b82620002cd565b9050602081019050919050565b60005b83811015620003b85780820151818401526020810190506200039b565b60008484015250505050565b6000620003db620003d58462000362565b62000343565b905082815260208101848484011115620003fa57620003f9620002c8565b5b6200040784828562000398565b509392505050565b600082601f830112620004275762000426620002c3565b5b815162000439848260208601620003c4565b91505092915050565b6000602082840312156200045b576200045a620002b9565b5b600082015167ffffffffffffffff8111156200047c576200047b620002be565b5b6200048a848285016200040f565b91505092915050565b600081519050919050565b7f4e487b7100000000000000000000000000000000000000000000000000000000600052602260045260246000fd5b60006002820490506001821680620004e657607f821691505b602082108103620004fc57620004fb6200049e565b5b50919050565b60008190508160005260206000209050919050565b60006020601f8301049050919050565b600082821b905092915050565b600060088302620005667fffffffffffffffffffffffffffffffffffffffffffffffffffffffffffffffff8262000527565b62000572868362000527565b95508019841693508086168417925050509392505050565b6000819050919050565b6000819050919050565b6000620005bf620005b9620005b3846200058a565b62000594565b6200058a565b9050919050565b6000819050919050565b620005db836200059e565b620005f3620005ea82620005c6565b84845462000534565b825550505050565b600090565b6200060a620005fb565b62000617818484620005d0565b505050565b5b818110156200063f576200063360008262000600565b6001810190506200061d565b5050565b601f8211156200068e57620006588162000502565b620006638462000517565b8101602085101562000673578190505b6200068b620006828562000517565b8301826200061c565b50505b505050565b600082821c905092915050565b6000620006b36000198460080262000693565b1980831691505092915050565b6000620006ce8383620006a0565b9150826002028217905092915050565b620006e98262000493565b67ffffffffffffffff811115620007055762000704620002de565b5b620007118254620004cd565b6200071e82828562000643565b600060209050601f83116001811462000756576000841562000741578287015190505b6200074d8582620006c0565b865550620007bd565b601f198416620007668662000502565b60005b82811015620007905784890151825560018201915060208501945060208101905062000769565b86831015620007b05784890151620007ac601f891682620006a0565b8355505b6001600288020188555050505b505050505050565b600082825260208201905092915050565b7f4f776e61626c653a2063616c6c6572206973206e6f7420746865206f776e6572600082015250565b60006200080e602083620007c5565b91506200081b82620007d6565b602082019050919050565b600060208201905081810360008301526200084181620007ff565b9050919050565b61401080620008586000396000f3fe6080604052600436106101b75760003560e01c806355f804b3116100ec57806395d89b411161008a578063c87b56dd11610064578063c87b56dd146105de578063d547cfb71461061b578063e985e9c514610646578063f2fde38b14610683576101b7565b806395d89b4114610561578063a22cb4651461058c578063b88d4fde146105b5576101b7565b8063715018a6116100c6578063715018a6146104b75780638462151c146104ce5780638d859f3e1461050b5780638da5cb5b14610536576101b7565b806355f804b3146104145780636352211e1461043d57806370a082311461047a576101b7565b806323b872dd116101595780633b4b1381116101335780633b4b1381146103885780633ccfd60b146103a457806342842e0e146103ae5780634f6ccce7146103d7576101b7565b806323b872dd146102f75780632f745c591461032057806332cb6b0c1461035d576101b7565b8063095ea7b311610195578063095ea7b31461026157806309d42b301461028a578063144100c7146102b557806318160ddd146102cc576101b7565b806301ffc9a7146101bc57806306fdde03146101f9578063081812fc14610224575b600080fd5b3480156101c857600080fd5b506101e360048036038101906101de91906128bb565b6106ac565b6040516101f09190612903565b60405180910390f35b34801561020557600080fd5b5061020e610726565b60405161021b91906129ae565b60405180910390f35b34801561023057600080fd5b5061024b60048036038101906102469190612a06565b6107b8565b6040516102589190612a74565b60405180910390f35b34801561026d57600080fd5b5061028860048036038101906102839190612abb565b6107fe565b005b34801561029657600080fd5b5061029f610915565b6040516102ac9190612b0a565b60405180910390f35b3480156102c157600080fd5b506102ca61091a565b005b3480156102d857600080fd5b506102e16109b1565b6040516102ee9190612b0a565b60405180910390f35b34801561030357600080fd5b5061031e60048036038101906103199190612b25565b6109be565b005b34801561032c57600080fd5b5061034760048036038101906103429190612abb565b610a1e565b6040516103549190612b0a565b60405180910390f35b34801561036957600080fd5b50610372610ac3565b60405161037f9190612b0a565b60405180910390f35b6103a2600480360381019061039d9190612a06565b610ac8565b005b6103ac610bf7565b005b3480156103ba57600080fd5b506103d560048036038101906103d09190612b25565b610c4e565b005b3480156103e357600080fd5b506103fe60048036038101906103f99190612a06565b610c6e565b60405161040b9190612b0a565b60405180910390f35b34801561042057600080fd5b5061043b60048036038101906104369190612cad565b610cdf565b005b34801561044957600080fd5b50610464600480360381019061045f9190612a06565b610cfa565b6040516104719190612a74565b60405180910390f35b34801561048657600080fd5b506104a1600480360381019061049c9190612cf6565b610d80565b6040516104ae9190612b0a565b60405180910390f35b3480156104c357600080fd5b506104cc610e37565b005b3480156104da57600080fd5b506104f560048036038101906104f09190612cf6565b610e4b565b6040516105029190612de1565b60405180910390f35b34801561051757600080fd5b50610520610fbb565b60405161052d9190612b0a565b60405180910390f35b34801561054257600080fd5b5061054b610fc6565b6040516105589190612a74565b60405180910390f35b34801561056d57600080fd5b50610576610ff0565b60405161058391906129ae565b60405180910390f35b34801561059857600080fd5b506105b360048036038101906105ae9190612e2f565b611082565b005b3480156105c157600080fd5b506105dc60048036038101906105d79190612f10565b611098565b005b3480156105ea57600080fd5b5061060560048036038101906106009190612a06565b6110fa565b60405161061291906129ae565b60405180910390f35b34801561062757600080fd5b50610630611162565b60405161063d91906129ae565b60405180910390f35b34801561065257600080fd5b5061066d60048036038101906106689190612f93565b6111f0565b60405161067a9190612903565b60405180910390f35b34801561068f57600080fd5b506106aa60048036038101906106a59190612cf6565b611284565b005b60007f780e9d63000000000000000000000000000000000000000000000000000000007bffffffffffffffffffffffffffffffffffffffffffffffffffffffff1916827bffffffffffffffffffffffffffffffffffffffffffffffffffffffff1916148061071f575061071e82611307565b5b9050919050565b60606000805461073590613002565b80601f016020809104026020016040519081016040528092919081815260200182805461076190613002565b80156107ae5780601f10610783576101008083540402835291602001916107ae565b820191906000526020600020905b81548152906001019060200180831161079157829003601f168201915b5050505050905090565b60006107c3826113e9565b6004600083815260200190815260200160002060009054906101000a900473ffffffffffffffffffffffffffffffffffffffff169050919050565b600061080982610cfa565b90508073ffffffffffffffffffffffffffffffffffffffff168373ffffffffffffffffffffffffffffffffffffffff1603610879576040517f08c379a0000000000000000000000000000000000000000000000000000000008152600401610870906130a5565b60405180910390fd5b8073ffffffffffffffffffffffffffffffffffffffff16610898611434565b73ffffffffffffffffffffffffffffffffffffffff1614806108c757506108c6816108c1611434565b6111f0565b5b610906576040517f08c379a00000000000000000000000000000000000000000000000000000000081526004016108fd90613137565b60405180910390fd5b610910838361143c565b505050565b600381565b6109226114f5565b600061092e600b611573565b9050601e610946600a8361158190919063ffffffff16565b10610986576040517f08c379a000000000000000000000000000000000000000000000000000000000815260040161097d906131a3565b60405180910390fd5b60005b600a8110156109ad5761099a611597565b80806109a5906131f2565b915050610989565b5050565b6000600880549050905090565b6109cf6109c9611434565b826115bc565b610a0e576040517f08c379a0000000000000000000000000000000000000000000000000000000008152600401610a05906132ac565b60405180910390fd5b610a19838383611651565b505050565b6000610a2983610d80565b8210610a6a576040517f08c379a0000000000000000000000000000000000000000000000000000000008152600401610a619061333e565b60405180910390fd5b600660008473ffffffffffffffffffffffffffffffffffffffff1673ffffffffffffffffffffffffffffffffffffffff168152602001908152602001600020600083815260200190815260200160002054905092915050565b601e81565b6000610ad4600b611573565b9050601e610aeb838361158190919063ffffffff16565b1115610b2c576040517f08c379a0000000000000000000000000000000000000000000000000000000008152600401610b23906133aa565b60405180910390fd5b6003821115610b70576040517f08c379a0000000000000000000000000000000000000000000000000000000008152600401610b679061343c565b60405180910390fd5b610b8a82662386f26fc1000061194a90919063ffffffff16565b341015610bcc576040517f08c379a0000000000000000000000000000000000000000000000000000000008152600401610bc3906134a8565b60405180910390fd5b60005b82811015610bf257610bdf611597565b8080610bea906131f2565b915050610bcf565b505050565b610bff6114f5565b60004790503373ffffffffffffffffffffffffffffffffffffffff166108fc829081150290604051600060405180830381858888f19350505050158015610c4a573d6000803e3d6000fd5b5050565b610c6983838360405180602001604052806000815250611098565b505050565b6000610c786109b1565b8210610cb9576040517f08c379a0000000000000000000000000000000000000000000000000000000008152600401610cb09061353a565b60405180910390fd5b60088281548110610ccd57610ccc61355a565b5b90600052602060002001549050919050565b610ce76114f5565b80600c9081610cf69190613735565b5050565b600080610d0683611960565b9050600073ffffffffffffffffffffffffffffffffffffffff168173ffffffffffffffffffffffffffffffffffffffff1603610d77576040517f08c379a0000000000000000000000000000000000000000000000000000000008152600401610d6e90613853565b60405180910390fd5b80915050919050565b60008073ffffffffffffffffffffffffffffffffffffffff168273ffffffffffffffffffffffffffffffffffffffff1603610df0576040517f08c379a0000000000000000000000000000000000000000000000000000000008152600401610de7906138e5565b60405180910390fd5b600360008373ffffffffffffffffffffffffffffffffffffffff1673ffffffffffffffffffffffffffffffffffffffff168152602001908152602001600020549050919050565b610e3f6114f5565b610e49600061199d565b565b60606000610e5883610d80565b905060008103610eb457600067ffffffffffffffff811115610e7d57610e7c612b82565b5b604051908082528060200260200182016040528015610eab5781602001602082028036833780820191505090505b50915050610fb6565b60008167ffffffffffffffff811115610ed057610ecf612b82565b5b604051908082528060200260200182016040528015610efe5781602001602082028036833780820191505090505b5090506000610f0d600b611573565b9050600080600190505b828111610fad57610f2781611a63565b8015610f6657508673ffffffffffffffffffffffffffffffffffffffff16610f4e82610cfa565b73ffffffffffffffffffffffffffffffffffffffff16145b15610f9a5780848381518110610f7f57610f7e61355a565b5b6020026020010181815250508180610f96906131f2565b9250505b8080610fa5906131f2565b915050610f17565b50829450505050505b919050565b662386f26fc1000081565b6000600a60009054906101000a900473ffffffffffffffffffffffffffffffffffffffff16905090565b606060018054610fff90613002565b80601f016020809104026020016040519081016040528092919081815260200182805461102b90613002565b80156110785780601f1061104d57610100808354040283529160200191611078565b820191906000526020600020905b81548152906001019060200180831161105b57829003601f168201915b5050505050905090565b61109461108d611434565b8383611aa4565b5050565b6110a96110a3611434565b836115bc565b6110e8576040517f08c379a00000000000000000000000000000000000000000000000000000000081526004016110df906132ac565b60405180910390fd5b6110f484848484611c10565b50505050565b6060611105826113e9565b600061110f611c6c565b9050600081511161112f576040518060200160405280600081525061115a565b8061113984611cfe565b60405160200161114a929190613941565b6040516020818303038152906040525b915050919050565b600c805461116f90613002565b80601f016020809104026020016040519081016040528092919081815260200182805461119b90613002565b80156111e85780601f106111bd576101008083540402835291602001916111e8565b820191906000526020600020905b8154815290600101906020018083116111cb57829003601f168201915b505050505081565b6000600560008473ffffffffffffffffffffffffffffffffffffffff1673ffffffffffffffffffffffffffffffffffffffff16815260200190815260200160002060008373ffffffffffffffffffffffffffffffffffffffff1673ffffffffffffffffffffffffffffffffffffffff16815260200190815260200160002060009054906101000a900460ff16905092915050565b61128c6114f5565b600073ffffffffffffffffffffffffffffffffffffffff168173ffffffffffffffffffffffffffffffffffffffff16036112fb576040517f08c379a00000000000000000000000000000000000000000000000000000000081526004016112f2906139d7565b60405180910390fd5b6113048161199d565b50565b60007f80ac58cd000000000000000000000000000000000000000000000000000000007bffffffffffffffffffffffffffffffffffffffffffffffffffffffff1916827bffffffffffffffffffffffffffffffffffffffffffffffffffffffff191614806113d257507f5b5e139f000000000000000000000000000000000000000000000000000000007bffffffffffffffffffffffffffffffffffffffffffffffffffffffff1916827bffffffffffffffffffffffffffffffffffffffffffffffffffffffff1916145b806113e257506113e182611dcc565b5b9050919050565b6113f281611a63565b611431576040517f08c379a000000000000000000000000000000000000000000000000000000000815260040161142890613853565b60405180910390fd5b50565b600033905090565b816004600083815260200190815260200160002060006101000a81548173ffffffffffffffffffffffffffffffffffffffff021916908373ffffffffffffffffffffffffffffffffffffffff160217905550808273ffffffffffffffffffffffffffffffffffffffff166114af83610cfa565b73ffffffffffffffffffffffffffffffffffffffff167f8c5be1e5ebec7d5bd14f71427d1e84f3dd0314c0f7b2291e5b200ac8c7c3b92560405160405180910390a45050565b6114fd611434565b73ffffffffffffffffffffffffffffffffffffffff1661151b610fc6565b73ffffffffffffffffffffffffffffffffffffffff1614611571576040517f08c379a000000000000000000000000000000000000000000000000000000000815260040161156890613a43565b60405180910390fd5b565b600081600001549050919050565b6000818361158f9190613a63565b905092915050565b6115a1600b611e36565b60006115ad600b611573565b90506115b93382611e4c565b50565b6000806115c883610cfa565b90508073ffffffffffffffffffffffffffffffffffffffff168473ffffffffffffffffffffffffffffffffffffffff16148061160a575061160981856111f0565b5b8061164857508373ffffffffffffffffffffffffffffffffffffffff16611630846107b8565b73ffffffffffffffffffffffffffffffffffffffff16145b91505092915050565b8273ffffffffffffffffffffffffffffffffffffffff1661167182610cfa565b73ffffffffffffffffffffffffffffffffffffffff16146116c7576040517f08c379a00000000000000000000000000000000000000000000000000000000081526004016116be90613b09565b60405180910390fd5b600073ffffffffffffffffffffffffffffffffffffffff168273ffffffffffffffffffffffffffffffffffffffff1603611736576040517f08c379a000000000000000000000000000000000000000000000000000000000815260040161172d90613b9b565b60405180910390fd5b6117438383836001611e6a565b8273ffffffffffffffffffffffffffffffffffffffff1661176382610cfa565b73ffffffffffffffffffffffffffffffffffffffff16146117b9576040517f08c379a00000000000000000000000000000000000000000000000000000000081526004016117b090613b09565b60405180910390fd5b6004600082815260200190815260200160002060006101000a81549073ffffffffffffffffffffffffffffffffffffffff02191690556001600360008573ffffffffffffffffffffffffffffffffffffffff1673ffffffffffffffffffffffffffffffffffffffff168152602001908152602001600020600082825403925050819055506001600360008473ffffffffffffffffffffffffffffffffffffffff1673ffffffffffffffffffffffffffffffffffffffff16815260200190815260200160002060008282540192505081905550816002600083815260200190815260200160002060006101000a81548173ffffffffffffffffffffffffffffffffffffffff021916908373ffffffffffffffffffffffffffffffffffffffff160217905550808273ffffffffffffffffffffffffffffffffffffffff168473ffffffffffffffffffffffffffffffffffffffff167fddf252ad1be2c89b69c2b068fc378daa952ba7f163c4a11628f55a4df523b3ef60405160405180910390a46119458383836001611fc8565b505050565b600081836119589190613bbb565b905092915050565b60006002600083815260200190815260200160002060009054906101000a900473ffffffffffffffffffffffffffffffffffffffff169050919050565b6000600a60009054906101000a900473ffffffffffffffffffffffffffffffffffffffff16905081600a60006101000a81548173ffffffffffffffffffffffffffffffffffffffff021916908373ffffffffffffffffffffffffffffffffffffffff1602179055508173ffffffffffffffffffffffffffffffffffffffff168173ffffffffffffffffffffffffffffffffffffffff167f8be0079c531659141344cd1fd0a4f28419497f9722a3daafe3b4186f6b6457e060405160405180910390a35050565b60008073ffffffffffffffffffffffffffffffffffffffff16611a8583611960565b73ffffffffffffffffffffffffffffffffffffffff1614159050919050565b8173ffffffffffffffffffffffffffffffffffffffff168373ffffffffffffffffffffffffffffffffffffffff1603611b12576040517f08c379a0000000000000000000000000000000000000000000000000000000008152600401611b0990613c49565b60405180910390fd5b80600560008573ffffffffffffffffffffffffffffffffffffffff1673ffffffffffffffffffffffffffffffffffffffff16815260200190815260200160002060008473ffffffffffffffffffffffffffffffffffffffff1673ffffffffffffffffffffffffffffffffffffffff16815260200190815260200160002060006101000a81548160ff0219169083151502179055508173ffffffffffffffffffffffffffffffffffffffff168373ffffffffffffffffffffffffffffffffffffffff167f17307eab39ab6107e8899845ad3d59bd9653f200f220920489ca2b5937696c3183604051611c039190612903565b60405180910390a3505050565b611c1b848484611651565b611c2784848484611fce565b611c66576040517f08c379a0000000000000000000000000000000000000000000000000000000008152600401611c5d90613cdb565b60405180910390fd5b50505050565b6060600c8054611c7b90613002565b80601f0160208091040260200160405190810160405280929190818152602001828054611ca790613002565b8015611cf45780601f10611cc957610100808354040283529160200191611cf4565b820191906000526020600020905b815481529060010190602001808311611cd757829003601f168201915b5050505050905090565b606060006001611d0d84612155565b01905060008167ffffffffffffffff811115611d2c57611d2b612b82565b5b6040519080825280601f01601f191660200182016040528015611d5e5781602001600182028036833780820191505090505b509050600082602001820190505b600115611dc1578080600190039150507f3031323334353637383961626364656600000000000000000000000000000000600a86061a8153600a8581611db557611db4613cfb565b5b04945060008503611d6c575b819350505050919050565b60007f01ffc9a7000000000000000000000000000000000000000000000000000000007bffffffffffffffffffffffffffffffffffffffffffffffffffffffff1916827bffffffffffffffffffffffffffffffffffffffffffffffffffffffff1916149050919050565b6001816000016000828254019250508190555050565b611e668282604051806020016040528060008152506122a8565b5050565b611e7684848484612303565b6001811115611eba576040517f08c379a0000000000000000000000000000000000000000000000000000000008152600401611eb190613d9c565b60405180910390fd5b6000829050600073ffffffffffffffffffffffffffffffffffffffff168573ffffffffffffffffffffffffffffffffffffffff1603611f0157611efc81612309565b611f40565b8373ffffffffffffffffffffffffffffffffffffffff168573ffffffffffffffffffffffffffffffffffffffff1614611f3f57611f3e8582612352565b5b5b600073ffffffffffffffffffffffffffffffffffffffff168473ffffffffffffffffffffffffffffffffffffffff1603611f8257611f7d816124bf565b611fc1565b8473ffffffffffffffffffffffffffffffffffffffff168473ffffffffffffffffffffffffffffffffffffffff1614611fc057611fbf8482612590565b5b5b5050505050565b50505050565b6000611fef8473ffffffffffffffffffffffffffffffffffffffff1661260f565b15612148578373ffffffffffffffffffffffffffffffffffffffff1663150b7a02612018611434565b8786866040518563ffffffff1660e01b815260040161203a9493929190613e11565b6020604051808303816000875af192505050801561207657506040513d601f19601f820116820180604052508101906120739190613e72565b60015b6120f8573d80600081146120a6576040519150601f19603f3d011682016040523d82523d6000602084013e6120ab565b606091505b5060008151036120f0576040517f08c379a00000000000000000000000000000000000000000000000000000000081526004016120e790613cdb565b60405180910390fd5b805181602001fd5b63150b7a0260e01b7bffffffffffffffffffffffffffffffffffffffffffffffffffffffff1916817bffffffffffffffffffffffffffffffffffffffffffffffffffffffff19161491505061214d565b600190505b949350505050565b600080600090507a184f03e93ff9f4daa797ed6e38ed64bf6a1f01000000000000000083106121b3577a184f03e93ff9f4daa797ed6e38ed64bf6a1f01000000000000000083816121a9576121a8613cfb565b5b0492506040810190505b6d04ee2d6d415b85acef810000000083106121f0576d04ee2d6d415b85acef810000000083816121e6576121e5613cfb565b5b0492506020810190505b662386f26fc10000831061221f57662386f26fc10000838161221557612214613cfb565b5b0492506010810190505b6305f5e1008310612248576305f5e100838161223e5761223d613cfb565b5b0492506008810190505b612710831061226d57612710838161226357612262613cfb565b5b0492506004810190505b60648310612290576064838161228657612285613cfb565b5b0492506002810190505b600a831061229f576001810190505b80915050919050565b6122b28383612632565b6122bf6000848484611fce565b6122fe576040517f08c379a00000000000000000000000000000000000000000000000000000000081526004016122f590613cdb565b60405180910390fd5b505050565b50505050565b6008805490506009600083815260200190815260200160002081905550600881908060018154018082558091505060019003906000526020600020016000909190919091505550565b6000600161235f84610d80565b6123699190613e9f565b905060006007600084815260200190815260200160002054905081811461244e576000600660008673ffffffffffffffffffffffffffffffffffffffff1673ffffffffffffffffffffffffffffffffffffffff168152602001908152602001600020600084815260200190815260200160002054905080600660008773ffffffffffffffffffffffffffffffffffffffff1673ffffffffffffffffffffffffffffffffffffffff168152602001908152602001600020600084815260200190815260200160002081905550816007600083815260200190815260200160002081905550505b6007600084815260200190815260200160002060009055600660008573ffffffffffffffffffffffffffffffffffffffff1673ffffffffffffffffffffffffffffffffffffffff16815260200190815260200160002060008381526020019081526020016000206000905550505050565b600060016008805490506124d39190613e9f565b90506000600960008481526020019081526020016000205490506000600883815481106125035761250261355a565b5b9060005260206000200154905080600883815481106125255761252461355a565b5b90600052602060002001819055508160096000838152602001908152602001600020819055506009600085815260200190815260200160002060009055600880548061257457612573613ed3565b5b6001900381819060005260206000200160009055905550505050565b600061259b83610d80565b905081600660008573ffffffffffffffffffffffffffffffffffffffff1673ffffffffffffffffffffffffffffffffffffffff168152602001908152602001600020600083815260200190815260200160002081905550806007600084815260200190815260200160002081905550505050565b6000808273ffffffffffffffffffffffffffffffffffffffff163b119050919050565b600073ffffffffffffffffffffffffffffffffffffffff168273ffffffffffffffffffffffffffffffffffffffff16036126a1576040517f08c379a000000000000000000000000000000000000000000000000000000000815260040161269890613f4e565b60405180910390fd5b6126aa81611a63565b156126ea576040517f08c379a00000000000000000000000000000000000000000000000000000000081526004016126e190613fba565b60405180910390fd5b6126f8600083836001611e6a565b61270181611a63565b15612741576040517f08c379a000000000000000000000000000000000000000000000000000000000815260040161273890613fba565b60405180910390fd5b6001600360008473ffffffffffffffffffffffffffffffffffffffff1673ffffffffffffffffffffffffffffffffffffffff16815260200190815260200160002060008282540192505081905550816002600083815260200190815260200160002060006101000a81548173ffffffffffffffffffffffffffffffffffffffff021916908373ffffffffffffffffffffffffffffffffffffffff160217905550808273ffffffffffffffffffffffffffffffffffffffff16600073ffffffffffffffffffffffffffffffffffffffff167fddf252ad1be2c89b69c2b068fc378daa952ba7f163c4a11628f55a4df523b3ef60405160405180910390a461284b600083836001611fc8565b5050565b6000604051905090565b600080fd5b600080fd5b60007fffffffff0000000000000000000000000000000000000000000000000000000082169050919050565b61289881612863565b81146128a357600080fd5b50565b6000813590506128b58161288f565b92915050565b6000602082840312156128d1576128d0612859565b5b60006128df848285016128a6565b91505092915050565b60008115159050919050565b6128fd816128e8565b82525050565b600060208201905061291860008301846128f4565b92915050565b600081519050919050565b600082825260208201905092915050565b60005b8381101561295857808201518184015260208101905061293d565b60008484015250505050565b6000601f19601f8301169050919050565b60006129808261291e565b61298a8185612929565b935061299a81856020860161293a565b6129a381612964565b840191505092915050565b600060208201905081810360008301526129c88184612975565b905092915050565b6000819050919050565b6129e3816129d0565b81146129ee57600080fd5b50565b600081359050612a00816129da565b92915050565b600060208284031215612a1c57612a1b612859565b5b6000612a2a848285016129f1565b91505092915050565b600073ffffffffffffffffffffffffffffffffffffffff82169050919050565b6000612a5e82612a33565b9050919050565b612a6e81612a53565b82525050565b6000602082019050612a896000830184612a65565b92915050565b612a9881612a53565b8114612aa357600080fd5b50565b600081359050612ab581612a8f565b92915050565b60008060408385031215612ad257612ad1612859565b5b6000612ae085828601612aa6565b9250506020612af1858286016129f1565b9150509250929050565b612b04816129d0565b82525050565b6000602082019050612b1f6000830184612afb565b92915050565b600080600060608486031215612b3e57612b3d612859565b5b6000612b4c86828701612aa6565b9350506020612b5d86828701612aa6565b9250506040612b6e868287016129f1565b9150509250925092565b600080fd5b600080fd5b7f4e487b7100000000000000000000000000000000000000000000000000000000600052604160045260246000fd5b612bba82612964565b810181811067ffffffffffffffff82111715612bd957612bd8612b82565b5b80604052505050565b6000612bec61284f565b9050612bf88282612bb1565b919050565b600067ffffffffffffffff821115612c1857612c17612b82565b5b612c2182612964565b9050602081019050919050565b82818337600083830152505050565b6000612c50612c4b84612bfd565b612be2565b905082815260208101848484011115612c6c57612c6b612b7d565b5b612c77848285612c2e565b509392505050565b600082601f830112612c9457612c93612b78565b5b8135612ca4848260208601612c3d565b91505092915050565b600060208284031215612cc357612cc2612859565b5b600082013567ffffffffffffffff811115612ce157612ce061285e565b5b612ced84828501612c7f565b91505092915050565b600060208284031215612d0c57612d0b612859565b5b6000612d1a84828501612aa6565b91505092915050565b600081519050919050565b600082825260208201905092915050565b6000819050602082019050919050565b612d58816129d0565b82525050565b6000612d6a8383612d4f565b60208301905092915050565b6000602082019050919050565b6000612d8e82612d23565b612d988185612d2e565b9350612da383612d3f565b8060005b83811015612dd4578151612dbb8882612d5e565b9750612dc683612d76565b925050600181019050612da7565b5085935050505092915050565b60006020820190508181036000830152612dfb8184612d83565b905092915050565b612e0c816128e8565b8114612e1757600080fd5b50565b600081359050612e2981612e03565b92915050565b60008060408385031215612e4657612e45612859565b5b6000612e5485828601612aa6565b9250506020612e6585828601612e1a565b9150509250929050565b600067ffffffffffffffff821115612e8a57612e89612b82565b5b612e9382612964565b9050602081019050919050565b6000612eb3612eae84612e6f565b612be2565b905082815260208101848484011115612ecf57612ece612b7d565b5b612eda848285612c2e565b509392505050565b600082601f830112612ef757612ef6612b78565b5b8135612f07848260208601612ea0565b91505092915050565b60008060008060808587031215612f2a57612f29612859565b5b6000612f3887828801612aa6565b9450506020612f4987828801612aa6565b9350506040612f5a878288016129f1565b925050606085013567ffffffffffffffff811115612f7b57612f7a61285e565b5b612f8787828801612ee2565b91505092959194509250565b60008060408385031215612faa57612fa9612859565b5b6000612fb885828601612aa6565b9250506020612fc985828601612aa6565b9150509250929050565b7f4e487b7100000000000000000000000000000000000000000000000000000000600052602260045260246000fd5b6000600282049050600182168061301a57607f821691505b60208210810361302d5761302c612fd3565b5b50919050565b7f4552433732313a20617070726f76616c20746f2063757272656e74206f776e6560008201527f7200000000000000000000000000000000000000000000000000000000000000602082015250565b600061308f602183612929565b915061309a82613033565b604082019050919050565b600060208201905081810360008301526130be81613082565b9050919050565b7f4552433732313a20617070726f76652063616c6c6572206973206e6f7420746f60008201527f6b656e206f776e6572206f7220617070726f76656420666f7220616c6c000000602082015250565b6000613121603d83612929565b915061312c826130c5565b604082019050919050565b6000602082019050818103600083015261315081613114565b9050919050565b7f4e6f7420656e6f756768204e465473206c65667420746f207265736572766500600082015250565b600061318d601f83612929565b915061319882613157565b602082019050919050565b600060208201905081810360008301526131bc81613180565b9050919050565b7f4e487b7100000000000000000000000000000000000000000000000000000000600052601160045260246000fd5b60006131fd826129d0565b91507fffffffffffffffffffffffffffffffffffffffffffffffffffffffffffffffff820361322f5761322e6131c3565b5b600182019050919050565b7f4552433732313a2063616c6c6572206973206e6f7420746f6b656e206f776e6560008201527f72206f7220617070726f76656400000000000000000000000000000000000000602082015250565b6000613296602d83612929565b91506132a18261323a565b604082019050919050565b600060208201905081810360008301526132c581613289565b9050919050565b7f455243373231456e756d657261626c653a206f776e657220696e646578206f7560008201527f74206f6620626f756e6473000000000000000000000000000000000000000000602082015250565b6000613328602b83612929565b9150613333826132cc565b604082019050919050565b600060208201905081810360008301526133578161331b565b9050919050565b7f4e6f7420656e6f756768204e465473206c65667420746f206d696e7400000000600082015250565b6000613394601c83612929565b915061339f8261335e565b602082019050919050565b600060208201905081810360008301526133c381613387565b9050919050565b7f43616e6e6f74206d696e74206d6f7265207468616e2033204e4654732061742060008201527f612074696d650000000000000000000000000000000000000000000000000000602082015250565b6000613426602683612929565b9150613431826133ca565b604082019050919050565b6000602082019050818103600083015261345581613419565b9050919050565b7f496e73756666696369656e742066756e647320746f206d696e74204e46547300600082015250565b6000613492601f83612929565b915061349d8261345c565b602082019050919050565b600060208201905081810360008301526134c181613485565b9050919050565b7f455243373231456e756d657261626c653a20676c6f62616c20696e646578206f60008201527f7574206f6620626f756e64730000000000000000000000000000000000000000602082015250565b6000613524602c83612929565b915061352f826134c8565b604082019050919050565b6000602082019050818103600083015261355381613517565b9050919050565b7f4e487b7100000000000000000000000000000000000000000000000000000000600052603260045260246000fd5b60008190508160005260206000209050919050565b60006020601f8301049050919050565b600082821b905092915050565b6000600883026135eb7fffffffffffffffffffffffffffffffffffffffffffffffffffffffffffffffff826135ae565b6135f586836135ae565b95508019841693508086168417925050509392505050565b6000819050919050565b600061363261362d613628846129d0565b61360d565b6129d0565b9050919050565b6000819050919050565b61364c83613617565b61366061365882613639565b8484546135bb565b825550505050565b600090565b613675613668565b613680818484613643565b505050565b5b818110156136a45761369960008261366d565b600181019050613686565b5050565b601f8211156136e9576136ba81613589565b6136c38461359e565b810160208510156136d2578190505b6136e66136de8561359e565b830182613685565b50505b505050565b600082821c905092915050565b600061370c600019846008026136ee565b1980831691505092915050565b600061372583836136fb565b9150826002028217905092915050565b61373e8261291e565b67ffffffffffffffff81111561375757613756612b82565b5b6137618254613002565b61376c8282856136a8565b600060209050601f83116001811461379f576000841561378d578287015190505b6137978582613719565b8655506137ff565b601f1984166137ad86613589565b60005b828110156137d5578489015182556001820191506020850194506020810190506137b0565b868310156137f257848901516137ee601f8916826136fb565b8355505b6001600288020188555050505b505050505050565b7f4552433732313a20696e76616c696420746f6b656e2049440000000000000000600082015250565b600061383d601883612929565b915061384882613807565b602082019050919050565b6000602082019050818103600083015261386c81613830565b9050919050565b7f4552433732313a2061646472657373207a65726f206973206e6f74206120766160008201527f6c6964206f776e65720000000000000000000000000000000000000000000000602082015250565b60006138cf602983612929565b91506138da82613873565b604082019050919050565b600060208201905081810360008301526138fe816138c2565b9050919050565b600081905092915050565b600061391b8261291e565b6139258185613905565b935061393581856020860161293a565b80840191505092915050565b600061394d8285613910565b91506139598284613910565b91508190509392505050565b7f4f776e61626c653a206e6577206f776e657220697320746865207a65726f206160008201527f6464726573730000000000000000000000000000000000000000000000000000602082015250565b60006139c1602683612929565b91506139cc82613965565b604082019050919050565b600060208201905081810360008301526139f0816139b4565b9050919050565b7f4f776e61626c653a2063616c6c6572206973206e6f7420746865206f776e6572600082015250565b6000613a2d602083612929565b9150613a38826139f7565b602082019050919050565b60006020820190508181036000830152613a5c81613a20565b9050919050565b6000613a6e826129d0565b9150613a79836129d0565b9250828201905080821115613a9157613a906131c3565b5b92915050565b7f4552433732313a207472616e736665722066726f6d20696e636f72726563742060008201527f6f776e6572000000000000000000000000000000000000000000000000000000602082015250565b6000613af3602583612929565b9150613afe82613a97565b604082019050919050565b60006020820190508181036000830152613b2281613ae6565b9050919050565b7f4552433732313a207472616e7366657220746f20746865207a65726f2061646460008201527f7265737300000000000000000000000000000000000000000000000000000000602082015250565b6000613b85602483612929565b9150613b9082613b29565b604082019050919050565b60006020820190508181036000830152613bb481613b78565b9050919050565b6000613bc6826129d0565b9150613bd1836129d0565b9250828202613bdf816129d0565b91508282048414831517613bf657613bf56131c3565b5b5092915050565b7f4552433732313a20617070726f766520746f2063616c6c657200000000000000600082015250565b6000613c33601983612929565b9150613c3e82613bfd565b602082019050919050565b60006020820190508181036000830152613c6281613c26565b9050919050565b7f4552433732313a207472616e7366657220746f206e6f6e20455243373231526560008201527f63656976657220696d706c656d656e7465720000000000000000000000000000602082015250565b6000613cc5603283612929565b9150613cd082613c69565b604082019050919050565b60006020820190508181036000830152613cf481613cb8565b9050919050565b7f4e487b7100000000000000000000000000000000000000000000000000000000600052601260045260246000fd5b7f455243373231456e756d657261626c653a20636f6e736563757469766520747260008201527f616e7366657273206e6f7420737570706f727465640000000000000000000000602082015250565b6000613d86603583612929565b9150613d9182613d2a565b604082019050919050565b60006020820190508181036000830152613db581613d79565b9050919050565b600081519050919050565b600082825260208201905092915050565b6000613de382613dbc565b613ded8185613dc7565b9350613dfd81856020860161293a565b613e0681612964565b840191505092915050565b6000608082019050613e266000830187612a65565b613e336020830186612a65565b613e406040830185612afb565b8181036060830152613e528184613dd8565b905095945050505050565b600081519050613e6c8161288f565b92915050565b600060208284031215613e8857613e87612859565b5b6000613e9684828501613e5d565b91505092915050565b6000613eaa826129d0565b9150613eb5836129d0565b9250828203905081811115613ecd57613ecc6131c3565b5b92915050565b7f4e487b7100000000000000000000000000000000000000000000000000000000600052603160045260246000fd5b7f4552433732313a206d696e7420746f20746865207a65726f2061646472657373600082015250565b6000613f38602083612929565b9150613f4382613f02565b602082019050919050565b60006020820190508181036000830152613f6781613f2b565b9050919050565b7f4552433732313a20746f6b656e20616c7265616479206d696e74656400000000600082015250565b6000613fa4601c83612929565b9150613faf82613f6e565b602082019050919050565b60006020820190508181036000830152613fd381613f97565b905091905056fea26469706673582212208cf7a0df471864b9fadacd7aa21a5a9d5f7a27bea29751099f662b1b5cb9070964736f6c63430008120033",
  "linkReferences": {},
  "deployedLinkReferences": {}
}